:100000000C9408010C9430010C9430010C943001D4
:100010000C9430010C9430010C9430010C9430019C
:100020000C9430010C9430010C9448050C94BA05E2
:100030000C9430010C9430010C9430010C9430017C
:100040000C9430010C9430010C9430010C9430016C
:100050000C9430010C9430010C9430010C94FE048B
:100060000C9430010C9430010C9430010C9430014C
:100070000C9430010C9430010C9430010C9430013C
:100080000C9430010C9430010C9430010C9430012C
:100090000C9430010C9430010C9430010C9430011C
:1000A0000C9430010C9430010C9430012C042F047A
:1000B0001E04220426045004500450043304370460
:1000C0003B044104450450044B048B049004950404
:1000D0009F04A904F304F304F304B304BD04C704A8
:1000E000D104DE04F304E6044E414E494E4954590E
:1000F000494E46CDCCCC3D0AD7233C17B7D13877F3
:10010000CC2B329595E6241FB14F0A000020410008
:1001100000C84200401C4620BCBE4CCA1B0E5AAE52
:10012000C59D740000000200090F000003040100D7
:100130000C000000000000000000000000000000B3
:100140000000080B00020202000009040000010286
:10015000020000052400100105240101010424020D
:10016000060524060001070581031000400904016B
:1001700000020A0000000705020240000007058394
:10018000024000000403090412010002EF020140D2
:100190004123368000010102030141726475696EDA
:1001A0006F204C4C430055534220494F20426F6111
:1001B00072640000000000250028002B002E003192
:1001C0000000000000240027002A002D0030000459
:1001D00004040404030405020202020403020202EE
:1001E00002060606060606040402020204040408C7
:1001F000020110408040102040804080080204012D
:100200008040201002011080102040402000B30ADE
:1002100011241FBECFEFDAE0DEBFCDBF22E0A2E3A4
:10022000B1E001C01D92A038B207E1F711E0A0E0F3
:10023000B1E0E2E6FCE102C005900D92A233B10705
:10024000D9F711E0C8E0D1E004C02197FE010E9477
:10025000290EC730D107C9F70E94F8070C94CC0AC1
:100260000C94000090E0FC01E251FE4F2491FC014F
:10027000E153FE4F8491882399F090E0880F991FF5
:10028000FC01EF53FE4FA591B491FC01ED54FE4FDC
:10029000859194918FB7F894EC91E22BEC938FBFFA
:1002A000089520917B02211103C08FEF9FEF0895E5
:1002B0005FB7F89422E02093E9002091F20030E04B
:1002C0001216130614F421E030E0422FFC0184E6FC
:1002D000415038F0289880937A029091F1009193E0
:1002E000F7CF2115310521F08091F200882319F014
:1002F0005FBFC90108958BE68093E800F9CF2FB75F
:10030000F89483E08093E9009091E800892F80724F
:1003100095FF04C09091F20080E4891B2FBF0895DF
:100320008091720281110DC082E080936E0284E0A0
:1003300080936F02109271021092700281E080939C
:1003400072028EE692E008953FB7F89480916A02B7
:1003500090916B02A0916C02B0916D0226B5A89BA2
:1003600005C02F3F19F00196A11DB11D3FBFBA2F47
:10037000A92F982F8827820F911DA11DB11DBC01A7
:10038000CD0142E0660F771F881F991F4A95D1F76C
:1003900008958F929F92AF92BF92CF92DF92EF9289
:1003A000FF926B017C010E94A4014B015C01C1140E
:1003B000D104E104F104F1F00E94A401DC01CB01BD
:1003C00088199909AA09BB09883E9340A105B1057E
:1003D00070F321E0C21AD108E108F10888EE880E16
:1003E00083E0981EA11CB11CC114D104E104F104E6
:1003F00019F7DDCFFF90EF90DF90CF90BF90AF90D7
:100400009F908F90089540915F02509160022091DB
:100410005D0230915E0242175307B4F49091E800F8
:100420009570E1F39091E80092FD19C08093F1007E
:1004300080915F029091600201968F739927892BBA
:1004400019F48EEF8093E80080915F029091600232
:1004500001969093600280935F0281E0089580E0AE
:100460000895DF92EF92FF920F931F93CF93DF9344
:10047000D82EF92EE42E062F10E0C8010196880F21
:100480000E94030283E00E940302CD2DDF2D0C0F9A
:100490001D1FC017D10789F0E7FE03C0FE0184913C
:1004A00001C088810E940302F82E80E00E940302AE
:1004B0008F2121968111EDCF01C081E0DF91CF9195
:1004C0001F910F91FF90EF90DF900895DF92EF92D0
:1004D000FF920F931F93CF93DF93D82E8A017B0156
:1004E000E40EF51EEB01CE15DF0571F0D7FE03C05B
:1004F000FE01849101C088810E940302219681112E
:10050000F2CF8FEF9FEF01C0C801DF91CF911F9114
:100510000F91FF90EF90DF9008950F931F93CF936B
:10052000DF931F92CDB7DEB782E0898342E450E0CB
:1005300062E471E080E80E9466020E949001DC01A2
:1005400012960D911C9113970115110589F0D80190
:10055000ED91FC910280F381E02DBE016F5F7F4F32
:10056000C801099597FD04C0F80100851185ECCFFD
:1005700089810F90DF91CF911F910F910895615064
:1005800030F02091F100FC0120830196F8CF2898EB
:1005900084E680937A020895CF92DF92EF92FF92E1
:1005A0000F931F93CF93DF936C017A018B01C0E00F
:1005B000D0E0CE15DF0581F0D8016D918D01D60117
:1005C000ED91FC910190F081E02DC6010995892BF8
:1005D00011F02196EECF7E01C701DF91CF911F91DF
:1005E0000F91FF90EF90DF90CF9008958F929F92A0
:1005F000AF92BF92CF92DF92EF92FF920F931F9331
:10060000CF93DF936C017B018A0180910B018823DA
:1006100009F45CC080917B02882309F457C0809163
:10062000630280FF05C08091E00082608093E0005B
:10063000E801B12C8AEFA82E93E0892E2AE3922EAE
:10064000209711F4BB20D9F10E947F0181110AC0CB
:10065000AA94AA20D9F161E070E080E090E00E94C5
:10066000C901EECF282F30E0C217D3070CF48C2F2E
:100670009FB7F8948092E9002091E80025FF1DC003
:10068000282F30E0C21BD30BF701815020F041919D
:100690004093F100FACFE20EF31EBB2019F09092C6
:1006A000E8000AC08091E80085FD07C09092E8004C
:1006B000BB24B394209709F0B12C9FBFC1CF5D98A4
:1006C00084E6809364021016110644F081E090E005
:1006D000F6019383828380E090E001C0C801DF913E
:1006E000CF911F910F91FF90EF90DF90CF90BF902F
:1006F000AF909F908F900895CF93DF931F92CDB7C7
:10070000DEB76983DC01ED91FC910280F381E02D7D
:1007100041E050E0BE016F5F7F4F09950F90DF9180
:10072000CF91089583E08093E9008091F2008823BF
:1007300019F08AE38093E80008950E947F0190E019
:100740000895CF93DF931F92CDB7DEB7FC01848568
:10075000958597FD05C02FEF3FEF358724870BC0A8
:10076000CE0101960E945101019719F4898190E010
:1007700002C08FEF9FEF0F90DF91CF9108950F93FD
:100780001F93CF93DF931F92CDB7DEB78C01FC018F
:100790008485958597FF0EC0CE0101960E94510178
:1007A000019719F4898190E002C08FEF9FEFF80163
:1007B00095878487F801848595850F90DF91CF9187
:1007C0001F910F910895FC018485958597FD0BC0BD
:1007D0009FB7F89482E08093E9008091F2009FBF78
:1007E00090E0019608959FB7F89482E08093E90025
:1007F0008091F2009FBF90E00895089580E090E01E
:100800000895362F90E0FC01ED5DFE4F4491FC0110
:10081000E251FE4F2491FC01E153FE4F8491882365
:1008200009F452C04423E1F150E0FA013197EF306E
:10083000F105B0F5EA5AFF4F0C94290E9091800013
:100840009F7707C0909180009F7D03C090918000AA
:10085000977F9093800024C094B59F7702C094B591
:100860009F7D94BD1DC0909190009F7707C090918F
:1008700090009F7D03C090919000977F909390008F
:100880000FC09091C0009F7703C09091C0009F7DE2
:100890009093C00005C09091C200977F9093C200D2
:1008A000E82FF0E0EE0FFF1FED54FE4FA591B4913D
:1008B0009FB7F894311104C08C912095282302C071
:1008C000EC912E2B2C939FBF08951F93CF93DF9312
:1008D000182FEB010E943201209711F460E004C050
:1008E000CF3FD10539F461E0812FDF91CF911F9186
:1008F0000C940104E12FF0E0ED5DFE4FE4918E2FAA
:1009000090E0FC013197EF30F10508F06CC0EB5935
:10091000FF4F0C94290E84B5806884BDC7BD68C0A4
:1009200084B5806284BDC8BD63C08091800080684A
:1009300080938000D0938900C093880059C0809133
:100940008000806280938000D0938B00C0938A00E7
:100950004FC080918000886080938000D0938D008C
:10096000C0938C0045C08091900080688093900077
:10097000D0939900C09398003BC080919000806212
:1009800080939000D0939B00C0939A0031C08091D7
:100990009000886080939000D0939D00C0939C004D
:1009A00027C08091C00080688093C0008091C00003
:1009B0008F7B8093C000C093CF001AC08091C0008D
:1009C00080628093C000C093D00012C08091C200AA
:1009D00088608093C2008091C2008B7F8093C200A8
:1009E000C093D20005C0C038D1050CF07CCF76CFC3
:1009F000DF91CF911F9108950E94E20D1F920F92F7
:100A00000FB60F9211242F933F938F939F93AF9321
:100A1000BF938091660290916702A0916802B091A5
:100A200069023091650223E0230F2D3720F40196EF
:100A3000A11DB11D05C026E8230F0296A11DB11D01
:100A4000209365028093660290936702A0936802E8
:100A5000B093690280916A0290916B02A0916C023E
:100A6000B0916D020196A11DB11D80936A02909311
:100A70006B02A0936C02B0936D02BF91AF919F91F6
:100A80008F913F912F910F900FBE0F901F9018954F
:100A90001F920F920FB60F9211248F939F93809104
:100AA000E1009091E100937F9093E10083FF0FC0FC
:100AB0001092E90091E09093EB001092EC0092E329
:100AC0009093ED0010927B0298E09093F00082FFEB
:100AD00020C093E09093E9009091F200992319F0DF
:100AE0009AE39093E80090916402992339F09091F1
:100AF0006402915090936402992389F190917A0253
:100B0000992339F090917A02915090937A02992327
:100B100041F184FF10C08091E2008E7E816080935D
:100B2000E2008091E1008F7E8093E100809163027A
:100B30008E7E806111C080FF16C08091E2008E7EA3
:100B400080618093E2008091E1008E7E8093E100DD
:100B5000809163028E7E81608093630204C05D9AFF
:100B6000CDCF289AD6CF9F918F910F900FBE0F9027
:100B70001F9018951F920F920FB60F921124CF92CB
:100B8000DF92EF92FF920F931F932F933F934F9318
:100B90005F936F937F938F939F93AF93BF93EF93E5
:100BA000FF93CF93DF93CDB7DEB76C97DEBFCDBF9A
:100BB0001092E9008091E80083FFFBC168E0CE015C
:100BC00045960E94BF0282EF8093E8008D8987FFDF
:100BD00005C09091E80090FFFCCF03C09EEF90937A
:100BE000E800982F907609F0C6C09E894F89588DED
:100BF0002F89F88C91110CC0803829F48091620201
:100C00008093F10002C01092F1001092F10045C1F2
:100C1000913051F4811141C14130510509F03DC17C
:100C2000809162028D7F0BC0933061F4811135C1D8
:100C30004130510509F031C1809162028260809398
:100C400062022BC1953049F48091E80080FFFCCF0F
:100C5000822F80688093E30020C1963009F05EC047
:100C60000B8D1C8D22E01092E90010926002109210
:100C70005F02F21232C010925E0210925D020E9478
:100C80008D0299E0BE016F5F7F4FDB01E92F1D925E
:100C9000EA95E9F79983FA8291E09E8390EA988732
:100CA0009AEF998720915F0230916002275F3F4F52
:100CB0003C832B838D831092E90010926002109286
:100CC0005F0210935E0200935D0249E050E080E015
:100CD0000E9466020E948D02E0C010935E020093A3
:100CE0005D020E949001DC0112960D911C911397F8
:100CF0000115110509F4BBC0D801ED91FC910480E8
:100D0000F581E02DBE016B5E7F4FC801099500970C
:100D100009F0C7C0F80100851185EACF973009F4C2
:100D200045C1983021F481E08093F100B6C099303C
:100D300009F0B3C0837009F039C1EFE1F1E081E05F
:100D400031E096E32081211109C08EE78093EA000B
:100D50001092EA008F8980937B029FC08093E90004
:100D60003093EB0021912093EC009093ED008F5F86
:100D7000873041F7EACF8B8D9C8D1092E90010925D
:100D8000600210925F0290935E0280935D02898DF3
:100D9000811153C08E899D89913A49F4813209F0BD
:100DA00005C147E050E064E071E080E0BBC09132F3
:100DB00009F0FCC0833269F48F89988DA0E0B0E01F
:100DC0008093000190930101A0930201B09303016D
:100DD00064C0803269F48091E80082FFFCCF67E054
:100DE00084E091E00E94BF028BEF8093E80055C041
:100DF000823209F052C08F8980930B01EEEFFFE73A
:100E0000859194918B3F9C4D19F0E0E0F8E002C091
:100E1000EEEFFAE08091040190910501A0910601A6
:100E2000B0910701803B9440A105B10509F09EC037
:100E300080910B0180FF79C099C00E949001FC0154
:100E4000028113810115110509F4B0C0D801ED919B
:100E5000FC910190F081E02DBE016B5E7F4FC801D7
:100E6000099581111AC0F80100851185EBCFF1E0D9
:100E7000FF1609F44EC0F3E0FF1298C08F89882353
:100E800009F44AC0823089F440E86CE086EA91E0D7
:100E90000E943102882309F489C08EEF8093E80014
:100EA00088C018161906CCF381C0813029F440E8B7
:100EB0006BE08AE991E0ECCF833009F077C00E94C3
:100EC0009001DC011296ED90FC9013978E010F5F5C
:100ED0001F4F6801E114F10479F0D701ED91FC9105
:100EE0000680F781E02DB801C7010995080F111D93
:100EF000F701E084F184EECFD8011C92F601019055
:100F00000020E9F73197BF016C197D0940E0C60167
:100F1000BFCF68E871E002C064E871E0FB01449172
:100F200050E080E80E946602B8CFEE3F2AE0F20768
:100F300051F0808191818737A7E79A0721F090933C
:100F4000FF0A8093FE0A87E797E791838083809169
:100F50006000809361029BE088E10FB6F894A89549
:100F6000809360000FBE9093600097CF8081918145
:100F70008737974709F091CFA895809160008861E5
:100F8000809360008091610280936000EE3FBAE040
:100F9000FB0739F08091FE0A9091FF0A91838083CC
:100FA0007CCF1092FF0A1092FE0A77CF81E28093E5
:100FB000EB006C960FB6F894DEBF0FBECDBFDF918D
:100FC000CF91FF91EF91BF91AF919F918F917F91C1
:100FD0006F915F914F913F912F911F910F91FF90D2
:100FE000EF90DF90CF900F900FBE0F901F9018954D
:100FF000789484B5826084BD84B5816084BD85B5F4
:10100000826085BD85B5816085BD80916E008160FF
:1010100080936E00109281008091810082608093A5
:1010200081008091810081608093810080918000A7
:101030008160809380008091910082608093910014
:1010400080919100816080939100809190008160F7
:10105000809390008091C10084608093C100809152
:10106000C10082608093C1008091C1008160809343
:10107000C1008091C30081608093C3008091C00053
:1010800082608093C0008091C20081608093C20022
:1010900080917A00846080937A0080917A008260E7
:1010A00080937A0080917A00816080937A008091A9
:1010B0007A00806880937A0010927B02109262021C
:1010C000109263028091D70081608093D70080EAFC
:1010D0008093D80089B5806189BD89B5826089BD5A
:1010E00009B400FEFDCF61E070E080E090E00E9476
:1010F000C9018091D8008F7C80618093D800809155
:10110000E000807F8093E0008091E1008E7E8093FC
:10111000E1008DE08093E200559A209A8FEF9FEFD7
:101120009093410180934001C0910B016AE070E00F
:1011300080E090E00E94C901CC23B1F34AE050E086
:1011400065E271E084E391E00E94F6028CE00E9487
:1011500032018DE00E9432018BE00E94320183E077
:101160000E94320182E00E94320185E00E94320139
:1011700088E00E94320189E00E9432018AE00E94E8
:10118000320187E00E94320184E00E94320186E051
:101190000E9432018DE00E94320160E070E08BE03D
:1011A0000E94650460E08CE00E94010460E08DE034
:1011B0000E94010460E070E085E00E94650460E048
:1011C00083E00E94010460E082E00E94010460E08C
:1011D00070E08AE00E94650460E088E00E940104FB
:1011E00060E089E00E94010460E070E086E00E9417
:1011F000650460E087E00E94010460E084E00E94F2
:101200000104C0E0D0E011E003E684E391E00E9435
:10121000E30320915C021816190664F521112AC017
:1012200084E391E00E94A103909133019923E9F0B6
:10123000E09132018E3371F0AE2FB0E0AC56BE4F6C
:101240008C93EF5FE43618F4E0933201DECF009325
:101250003201DBCFF0E0EC56FE4F108210923301EA
:101260001092320110935C02D0CF8C3371F6109340
:101270003301CBCF222309F448C064E971E088EF41
:1012800091E00E94E70D60E371E088EF91E00E9439
:10129000CF0A0E94C80A60939001709391018093D5
:1012A00092019093930160E371E080E090E00E94EE
:1012B000CF0A0E94C80A60938C0170938D018093BD
:1012C0008E0190938F0160E371E080E090E00E94D6
:1012D000CF0A0E94C80A60938801709389018093A5
:1012E0008A0190938B0160E371E080E090E00E94BE
:1012F000CF0A0E94C80A609384017093850180938D
:1013000086019093870110925C02C0909001D0906A
:101310009101E0909201F090930120E030E0A9016A
:10132000C701B6010E94240E18169CF42EEB3FEF65
:101330004FE753E4C701B6010E94D00C0E94EE0DA6
:101340008BE00E94650460E08CE00E94010461E093
:1013500023C020E030E0A901C701B6010E946A0C59
:1013600087FF10C0C701B60190582EEB3FEF4FE743
:1013700053E40E94D00C0E94EE0D8BE00E946504A5
:1013800061E006C06FEF70E08BE00E94650460E0F2
:101390008CE00E94010460E08DE00E940104C09096
:1013A0008C01D0908D01E0908E01F0908F0120E0B3
:1013B00030E0A901C701B6010E94240E18167CF482
:1013C0002EEB3FEF4FE753E4C701B6010E94D00C6C
:1013D0000E94EE0D85E00E94650461E023C020E0DC
:1013E00030E0A901C701B6010E946A0C87FF14C052
:1013F000C701B60190582EEB3FEF4FE753E40E9430
:10140000D00C0E94EE0D85E00E94650460E083E050
:101410000E94010461E00AC06FEF70E085E00E9465
:10142000650460E083E00E94010460E082E00E94C5
:101430000104C0908801D0908901E0908A01F09069
:101440008B0120E030E0A901C701B6010E94240E03
:1014500018169CF42EEB3FEF4FE753E4C701B6019B
:101460000E94D00C0E94EE0D8AE00E94650460E0AC
:1014700088E00E94010461E023C020E030E0A9017F
:10148000C701B6010E946A0C87FF10C0C701B601F0
:1014900090582EEB3FEF4FE753E40E94D00C0E9490
:1014A000EE0D8AE00E94650461E006C06FEF70E017
:1014B0008AE00E94650460E088E00E94010460E028
:1014C00089E00E940104C0908401D0908501E090E1
:1014D0008601F090870120E030E0A901C701B60144
:1014E0000E94240E18167CF42EEB3FEF4FE753E4D6
:1014F000C701B6010E94D00C0E94EE0D86E00E944A
:10150000650461E023C020E030E0A901C701B60115
:101510000E946A0C87FF14C0C701B60190582EEBD9
:101520003FEF4FE753E40E94D00C0E94EE0D86E09F
:101530000E94650460E087E00E94010461E00AC047
:101540006FEF70E086E00E94650460E087E00E9433
:10155000010460E084E00E940104209709F455CE64
:101560000E94000052CEE4E3F1E01382128288EE82
:1015700093E0A0E0B0E084839583A683B78380E105
:1015800091E0918380838FEF9FEF95878487089503
:10159000662777270C94FB0AF8940C942F0E4CE7DF
:1015A00052E00E94D40A0895FA01A191B0810097F7
:1015B00019F41097E1F0CD01DC01CD010D90002070
:1015C00011F4C00113C0FB012191222319F0201551
:1015D000D9F7F3CFFB012191201519F41E92119632
:1015E00006C02223C1F70D900020A1F7D001FA0117
:1015F000A193B0830895A0E0B0E0E1E0FBE00C949B
:10160000A20DEC016B016115710519F0FB019183CD
:1016100080837E01FFEFEF1AFF0A0881802F90E0A0
:101620000E94490C892B11F0E701F3CF0D3239F4F8
:101630007E0182E0E80EF11C098111E008C00B3246
:1016400029F47E0192E0E90EF11C098110E0E70126
:10165000219743E050E060EF70E0CE010E94520C11
:10166000892BC1F4239645E050E06BEE70E0CE018B
:101670000E94520C892B09F42596C114D10419F04B
:10168000F601D183C0831111F6C060E070E080E8FC
:101690009FE7FAC043E050E068EE70E0CE010E94A0
:1016A000520C892B59F4C114D10409F4E9C0F2E0B9
:1016B000EF0EF11CF601F182E082E2C020E030E0A2
:1016C000A901C0E0D0E0F70180EDA82EA00E89E0CE
:1016D0008A1530F1912F9260B92E812F887012FFF8
:1016E00004C0811124C0219622C081112197A5E058
:1016F000B0E00E94910DDC01CB01880F991FAA1F59
:10170000BB1F9C01AD012A0D311D411D511D283902
:1017100089E93807480789E1580748F0166006C08C
:101720009EEFA9120AC013FD40C01860B12E8FEFC2
:10173000E81AF80A00811B2DC6CF802F8F7D8534D3
:10174000A1F580818D3211F4106106C08B3221F039
:10175000319661E070E004C08181329662E070E011
:1017600080538A3018F0E61BF70B1FC060E070E072
:1017700060389CE079075CF4DB01AA0FBB1FAA0F5D
:10178000BB1F6A0F7B1F660F771F680F711D319695
:10179000DF0111978C9180538A3050F314FF03C0FE
:1017A000719561957109C60FD71F11FF08C0C1144B
:1017B000D10429F0CF010197F60191838083CA01FA
:1017C000B9010E946F0C212F2370233019F04B01B7
:1017D0005C0106C04B015C01B7FAB094B7F8B09455
:1017E00020E030E0A901C501B4010E946A0C882301
:1017F00009F43EC0D7FF06C0D195C195D10907E0D5
:1018000011E002C00FE111E06801F8E1CF1AD10840
:1018100090E2E92EF12CCE15DF0574F0F801259148
:10182000359145915491C501B4010E94D00C4B01F2
:101830005C01CE19DF09EFCF04501109F594E7944C
:101840000C151D0541F78A2D880F8B2D881F8F3FA2
:1018500049F020E030E0A901C501B4010E946A0C02
:10186000811106C082E290E090937F0280937E0215
:10187000C501B40109C060E070E080E89FEF04C0DA
:1018800060E070E080EC9FE7CDB7DEB7ECE00C9451
:10189000BE0D91110C943D0D803219F08950855088
:1018A000C8F70895FB01DC014150504088F08D914C
:1018B00081341CF08B350CF4805E659161341CF032
:1018C0006B350CF4605E861B611171F3990B089502
:1018D000881BFCCF0E94AC0C08F481E00895E894CA
:1018E00009C097FB3EF490958095709561957F4F68
:1018F0008F4F9F4F9923A9F0F92F96E9BB27939516
:10190000F695879577956795B795F111F8CFFAF425
:10191000BB0F11F460FF1BC06F5F7F4F8F4F9F4F56
:1019200016C0882311F096E911C0772321F09EE8B4
:10193000872F762F05C0662371F096E8862F70E01A
:1019400060E02AF09A95660F771F881FDAF7880FF4
:101950009695879597F90895990F0008550FAA0B4A
:10196000E0E8FEEF16161706E807F907C0F01216B2
:101970001306E407F50798F0621B730B840B950BB5
:1019800039F40A2661F0232B242B252B21F408950A
:101990000A2609F4A140A6958FEF811D811D0895A7
:1019A0000E94E30C0C94570D0E94490D38F00E94E0
:1019B000500D20F0952311F00C94400D0C94460D21
:1019C00011240C948B0D0E94680D70F3959FC1F348
:1019D000950F50E0551F629FF001729FBB27F00DDD
:1019E000B11D639FAA27F00DB11DAA1F649F662732
:1019F000B00DA11D661F829F2227B00DA11D621F81
:101A0000739FB00DA11D621F839FA00D611D221F3A
:101A1000749F3327A00D611D231F849F600D211D1E
:101A2000822F762F6A2F11249F5750409AF0F1F0A1
:101A300088234AF0EE0FFF1FBB1F661F771F881F0A
:101A400091505040A9F79E3F510580F00C94400DF5
:101A50000C948B0D5F3FE4F3983ED4F38695779515
:101A60006795B795F795E7959F5FC1F7FE2B880FB0
:101A7000911D9695879597F9089599278827089538
:101A800097F99F6780E870E060E008959FEF80EC31
:101A9000089500240A9416161706180609060895D4
:101AA00000240A9412161306140605060895092E3A
:101AB0000394000C11F4882352F0BB0F40F4BF2BA9
:101AC00011F460FF04C06F5F7F4F8F4F9F4F0895E9
:101AD00057FD9058440F551F59F05F3F71F04795DF
:101AE000880F97FB991F61F09F3F79F087950895C4
:101AF000121613061406551FF2CF4695F1DF08C0E3
:101B0000161617061806991FF1CF869571056105FF
:101B100008940895E894BB2766277727CB0197F9A7
:101B200008950E94D30DA59F900DB49F900DA49F82
:101B3000800D911D112408952F923F924F925F9234
:101B40006F927F928F929F92AF92BF92CF92DF92CD
:101B5000EF92FF920F931F93CF93DF93CDB7DEB732
:101B6000CA1BDB0B0FB6F894DEBF0FBECDBF0994C6
:101B70002A88398848885F846E847D848C849B841D
:101B8000AA84B984C884DF80EE80FD800C811B812B
:101B9000AA81B981CE0FD11D0FB6F894DEBF0FBE5A
:101BA000CDBFED010895A29FB001B39FC001A39FD7
:101BB000700D811D1124911DB29F700D811D112486
:101BC000911D089581E090E0F8940C942F0EFB0194
:101BD000DC0101900D920020E1F708950E94F50DBF
:101BE0006894B1110C948B0D08950E94700D88F0CB
:101BF0009F5798F0B92F9927B751B0F0E1F0660FD1
:101C0000771F881F991F1AF0BA95C9F714C0B13011
:101C100091F00E948A0DB1E008950C948A0D672F0F
:101C2000782F8827B85F39F0B93FCCF38695779540
:101C30006795B395D9F73EF4909580957095619529
:101C40007F4F8F4F9F4F08950E94AC0C08F48FEF89
:101C50000895EE0FFF1F0590F491E02D0994F8947C
:021C6000FFCFB4
:101C6200FFFFFFFF00E10000000000000000000095
:101C72007C03F6029D039203E303A103BF0300C1A9
:101C820080810000004461746120536574757000A6
:021C92002C0024
:00000001FF
