:100000000C94EA000C9412010C9412010C9412014D
:100010000C9412010C9412010C9412010C94120114
:100020000C9412010C9412010C9406050C947805A2
:100030000C9412010C9412010C9412010C941201F4
:100040000C9412010C9412010C9412010C941201E4
:100050000C9412010C9412010C9412010C94BC0427
:100060000C9412010C9412010C9412010C941201C4
:100070000C9412010C9412010C9412010C941201B4
:100080000C9412010C9412010C9412010C941201A4
:100090000C9412010C9412010C9412010C94120194
:1000A0000C9412010C9412010C941201EA03ED035A
:1000B000DC03E003E4030E040E040E04F103F50375
:1000C000F903FF0303040E04090449044E04530416
:1000D0005D046704B104B104B10471047B048504B8
:1000E0008F049C04B104A4040000000200090F0066
:1000F00000030401000C00000000000000000000EC
:1001000000000000000000080B00020202000009CD
:100110000400000102020000052400100105240172
:1001200001010424020605240600010705810310CD
:10013000004009040100020A000000070502024015
:1001400000000705830240000004030904120100B7
:1001500002EF020140412336800001010203014108
:10016000726475696E6F204C4C43005553422049B0
:100170004F20426F617264000000000025002800DB
:100180002B002E00310000000000240027002A0070
:100190002D003000040404040403040502020202DA
:1001A0000403020202020606060606060404020210
:1001B00002040404080201104080401020408040E6
:1001C00080080204018040201002011080102040AD
:1001D0004020C10911241FBECFEFDAE0DEBFCDBF42
:1001E00021E0A8E2B1E001C01D92A43EB207E1F710
:1001F00011E0A0E0B1E0EEE7F4E102C005900D925D
:10020000A832B107D9F710E0CAEED0E004C02197B8
:10021000FE010E94370AC93ED107C9F70E94B607FE
:100220000C94F4090C94000090E0FC01ED54FE4F96
:100230002491FC01EC56FE4F8491882399F090E0C4
:10024000880F991FFC01EA57FE4FA591B491FC015C
:10025000E858FE4F859194918FB7F894EC91E22B7A
:10026000EC938FBF08952091E101211103C08FEF1E
:100270009FEF08955FB7F89422E02093E900209162
:10028000F20030E01216130614F421E030E0422FA1
:10029000FC0184E6415038F028988093E001909169
:1002A000F1009193F7CF2115310521F08091F200F3
:1002B000882319F05FBFC90108958BE68093E80099
:1002C000F9CF2FB7F89483E08093E9009091E8008C
:1002D000892F807295FF04C09091F20080E4891B01
:1002E0002FBF08958091D80181110DC082E08093C5
:1002F000D40184E08093D5011092D7011092D601E9
:1003000081E08093D80184ED91E008953FB7F8949F
:100310008091D0019091D101A091D201B091D301EF
:1003200026B5A89B05C02F3F19F00196A11DB11D50
:100330003FBFBA2FA92F982F8827820F911DA11D8B
:10034000B11DBC01CD0142E0660F771F881F991FC8
:100350004A95D1F70895CF92DF92EF92FF920E94D3
:1003600086016B017C010E948601DC01CB018C19A6
:100370009D09AE09BF09883E9340A105B10598F3D8
:10038000FF90EF90DF90CF9008954091C50150917C
:10039000C6012091C3013091C40142175307B4F440
:1003A0009091E8009570E1F39091E80092FD19C0FA
:1003B0008093F1008091C5019091C60101968F73E1
:1003C0009927892B19F48EEF8093E8008091C5015D
:1003D0009091C60101969093C6018093C50181E07A
:1003E000089580E00895DF92EF92FF920F931F939C
:1003F000CF93DF93D82EF92EE42E062F10E0C801FC
:100400000196880F0E94C50183E00E94C501CD2D91
:10041000DF2D0C0F1D1FC017D10789F0E7FE03C0A9
:10042000FE01849101C088810E94C501F82E80E000
:100430000E94C5018F2121968111EDCF01C081E07D
:10044000DF91CF911F910F91FF90EF90DF90089572
:10045000DF92EF92FF920F931F93CF93DF93D82EEB
:100460008A017B01E40EF51EEB01CE15DF0571F06C
:10047000D7FE03C0FE01849101C088810E94C5019E
:1004800021968111F2CF8FEF9FEF01C0C801DF915C
:10049000CF911F910F91FF90EF90DF9008950F93F0
:1004A0001F93CF93DF931F92CDB7DEB782E089838E
:1004B00042E450E067E071E080E80E9428020E9478
:1004C0007201DC0112960D911C9113970115110513
:1004D00089F0D801ED91FC910280F381E02DBE01FD
:1004E0006F5F7F4FC801099597FD04C0F801008533
:1004F0001185ECCF89810F90DF91CF911F910F91E2
:100500000895615030F02091F100FC0120830196A4
:10051000F8CF289884E68093E0010895CF92DF9287
:10052000EF92FF920F931F93CF93DF936C017A01A9
:100530008B01C0E0D0E0CE15DF0581F0D8016D91D0
:100540008D01D601ED91FC910190F081E02DC60165
:100550000995892B11F02196EECF7E01C701DF911D
:10056000CF911F910F91FF90EF90DF90CF90089562
:100570008F929F92AF92BF92CF92DF92EF92FF92B3
:100580000F931F93CF93DF936C017B018A018091BE
:100590000B01882309F458C08091E101882309F4F4
:1005A00053C08091C90180FF05C08091E000826046
:1005B0008093E000E801B12C8AEFA82E93E0892E09
:1005C0002AE3922E209711F4BB20B9F10E94610119
:1005D000811106C0AA94AA20B9F10E94AB01F2CF02
:1005E000282F30E0C217D3070CF48C2F9FB7F89454
:1005F0008092E9002091E80025FF1DC0282F30E0FF
:10060000C21BD30BF701815020F041914093F100C0
:10061000FACFE20EF31EBB2019F09092E8000AC058
:100620008091E80085FD07C09092E800BB24B39458
:10063000209709F0B12C9FBFC5CF5D9884E68093C9
:10064000CA011016110644F081E090E0F601938390
:10065000828380E090E001C0C801DF91CF911F91BB
:100660000F91FF90EF90DF90CF90BF90AF909F9051
:100670008F900895CF93DF931F92CDB7DEB7698334
:10068000DC01ED91FC910280F381E02D41E050E02E
:10069000BE016F5F7F4F09950F90DF91CF91089555
:1006A00083E08093E9008091F200882319F08AE3C7
:1006B0008093E80008950E94610190E00895CF932F
:1006C000DF931F92CDB7DEB7FC018485958597FD3A
:1006D00005C02FEF3FEF358724870BC0CE01019671
:1006E0000E943301019719F4898190E002C08FEFD5
:1006F0009FEF0F90DF91CF9108950F931F93CF93AA
:10070000DF931F92CDB7DEB78C01FC018485958500
:1007100097FF0EC0CE0101960E943301019719F494
:10072000898190E002C08FEF9FEFF8019587848761
:10073000F801848595850F90DF91CF911F910F91DE
:100740000895FC018485958597FD0BC09FB7F894AB
:1007500082E08093E9008091F2009FBF90E00196D3
:1007600008959FB7F89482E08093E9008091F200A9
:100770009FBF90E00895089580E090E00895362F9F
:1007800090E0FC01E851FF4F4491FC01ED54FE4F15
:100790002491FC01EC56FE4F8491882309F452C049
:1007A0004423E1F150E0FA013197EF30F105B0F563
:1007B000EA5AFF4F0C94370A909180009F7707C048
:1007C000909180009F7D03C090918000977F9093CF
:1007D000800024C094B59F7702C094B59F7D94BDDE
:1007E0001DC0909190009F7707C0909190009F7DD1
:1007F00003C090919000977F909390000FC09091CC
:10080000C0009F7703C09091C0009F7D9093C0006F
:1008100005C09091C200977F9093C200E82FF0E04E
:10082000EE0FFF1FE858FE4FA591B4919FB7F894C3
:10083000311104C08C912095282302C0EC912E2BFD
:100840002C939FBF08951F93CF93DF93182FEB0135
:100850000E941401209711F460E004C0CF3FD1053D
:1008600039F461E0812FDF91CF911F910C94BF0388
:10087000E12FF0E0E851FF4FE4918E2F90E0FC0172
:100880003197EF30F10508F06CC0EB59FF4F0C9435
:10089000370A84B5806884BDC7BD68C084B58062EE
:1008A00084BDC8BD63C08091800080688093800053
:1008B000D0938900C093880059C0809180008062E5
:1008C00080938000D0938B00C0938A004FC08091AA
:1008D0008000886080938000D0938D00C0938C004E
:1008E00045C080919000806880939000D0939900DB
:1008F000C09398003BC080919000806280939000EC
:10090000D0939B00C0939A0031C080919000886082
:1009100080939000D0939D00C0939C0027C080914D
:10092000C00080688093C0008091C0008F7B80935E
:10093000C000C093CF001AC08091C0008062809335
:10094000C000C093D00012C08091C2008860809324
:10095000C2008091C2008B7F8093C200C093D200FE
:1009600005C0C038D1050CF07CCF76CFDF91CF9198
:100970001F9108950E942B0A1F920F920FB60F929B
:1009800011242F933F938F939F93AF93BF938091A5
:10099000CC019091CD01A091CE01B091CF013091C9
:1009A000CB0123E0230F2D3720F40196A11DB11DAB
:1009B00005C026E8230F0296A11DB11D2093CB018F
:1009C0008093CC019093CD01A093CE01B093CF0141
:1009D0008091D0019091D101A091D201B091D30129
:1009E0000196A11DB11D8093D0019093D101A093D8
:1009F000D201B093D301BF91AF919F918F913F915D
:100A00002F910F900FBE0F901F9018951F920F926D
:100A10000FB60F9211248F939F938091E1009091D4
:100A2000E100937F9093E10083FF0FC01092E900F3
:100A300091E09093EB001092EC0092E39093ED0024
:100A40001092E10198E09093F00082FF20C093E0C3
:100A50009093E9009091F200992319F09AE3909312
:100A6000E8009091CA01992339F09091CA01915000
:100A70009093CA01992389F19091E001992339F06B
:100A80009091E00191509093E001992341F184FF0E
:100A900010C08091E2008E7E81608093E2008091A0
:100AA000E1008F7E8093E1008091C9018E7E80619C
:100AB00011C080FF16C08091E2008E7E806180931D
:100AC000E2008091E1008E7E8093E1008091C90177
:100AD0008E7E81608093C90104C05D9ACDCF289A33
:100AE000D6CF9F918F910F900FBE0F901F901895AA
:100AF0001F920F920FB60F921124CF92DF92EF92B6
:100B0000FF920F931F932F933F934F935F936F9396
:100B10007F938F939F93AF93BF93EF93FF93CF9365
:100B2000DF93CDB7DEB76C97DEBFCDBF1092E90083
:100B30008091E80083FFFBC168E0CE0145960E94EA
:100B4000810282EF8093E8008D8987FF05C0909134
:100B5000E80090FFFCCF03C09EEF9093E800982F31
:100B6000907609F0C6C09E894F89588D2F89F88CE0
:100B700091110CC0803829F48091C8018093F10054
:100B800002C01092F1001092F10045C1913051F471
:100B9000811141C14130510509F03DC18091C80129
:100BA0008D7F0BC0933061F4811135C14130510507
:100BB00009F031C18091C80182608093C8012BC1C6
:100BC000953049F48091E80080FFFCCF822F806847
:100BD0008093E30020C1963009F05EC00B8D1C8D20
:100BE00022E01092E9001092C6011092C501F212A3
:100BF00032C01092C4011092C3010E944F0299E0CA
:100C0000BE016F5F7F4FDB01E92F1D92EA95E9F787
:100C10009983FA8291E09E8390EA98879AEF998768
:100C20002091C5013091C601275F3F4F3C832B8344
:100C30008D831092E9001092C6011092C5011093A5
:100C4000C4010093C30149E050E080E00E94280203
:100C50000E944F02E0C01093C4010093C3010E94A0
:100C60007201DC0112960D911C911397011511056B
:100C700009F4BBC0D801ED91FC910480F581E02D11
:100C8000BE016B5E7F4FC8010995009709F0C7C090
:100C9000F80100851185EACF973009F445C19830F5
:100CA00021F481E08093F100B6C0993009F0B3C01F
:100CB000837009F039C1EFE1F1E081E031E096E3C2
:100CC0002081211109C08EE78093EA001092EA008A
:100CD0008F898093E1019FC08093E9003093EB00FE
:100CE00021912093EC009093ED008F5F873041F7C6
:100CF000EACF8B8D9C8D1092E9001092C601109264
:100D0000C5019093C4018093C301898D811153C0A3
:100D10008E899D89913A49F4813209F005C147E0F5
:100D200050E064E071E080E0BBC0913209F0FCC0AB
:100D3000833269F48F89988DA0E0B0E08093000140
:100D400090930101A0930201B093030164C080322B
:100D500069F48091E80082FFFCCF67E084E091E0D5
:100D60000E9481028BEF8093E80055C0823209F027
:100D700052C08F8980930B01EEEFFFE7859194912C
:100D80008B3F9C4D19F0E0E0F8E002C0EEEFFAE096
:100D90008091040190910501A0910601B091070195
:100DA000803B9440A105B10509F09EC080910B01E4
:100DB00080FF79C099C00E947201FC0102811381F9
:100DC0000115110509F4B0C0D801ED91FC91019015
:100DD000F081E02DBE016B5E7F4FC8010995811146
:100DE0001AC0F80100851185EBCFF1E0FF1609F478
:100DF0004EC0F3E0FF1298C08F89882309F44AC0DF
:100E0000823089F440E86CE08BE691E00E94F301C7
:100E1000882309F489C08EEF8093E80088C01816F3
:100E20001906CCF381C0813029F440E86BE08FE5EE
:100E300091E0ECCF833009F077C00E947201DC01B1
:100E40001296ED90FC9013978E010F5F1F4F680173
:100E5000E114F10479F0D701ED91FC910680F7815E
:100E6000E02DB801C7010995080F111DF701E084B5
:100E7000F184EECFD8011C92F60101900020E9F731
:100E80003197BF016C197D0940E0C601BFCF6DE409
:100E900071E002C069E471E0FB01449150E080E838
:100EA0000E942802B8CFEE3F2AE0F20751F080817D
:100EB00091818737A7E79A0721F09093FF0A8093E3
:100EC000FE0A87E797E79183808380916000809393
:100ED000C7019BE088E10FB6F894A8958093600065
:100EE0000FBE9093600097CF80819181873797479D
:100EF00009F091CFA895809160008861809360008F
:100F00008091C70180936000EE3FBAE0FB0739F0A3
:100F10008091FE0A9091FF0A918380837CCF10928A
:100F2000FF0A1092FE0A77CF81E28093EB006C9665
:100F30000FB6F894DEBF0FBECDBFDF91CF91FF910A
:100F4000EF91BF91AF919F918F917F916F915F9141
:100F50004F913F912F911F910F91FF90EF90DF9054
:100F6000CF900F900FBE0F901F901895789484B576
:100F7000826084BD84B5816084BD85B5826085BD95
:100F800085B5816085BD80916E00816080936E0023
:100F90001092810080918100826080938100809115
:100FA00081008160809381008091800081608093C6
:100FB00080008091910082608093910080919100E7
:100FC0008160809391008091900081608093900077
:100FD0008091C10084608093C1008091C1008260D3
:100FE0008093C1008091C10081608093C100809195
:100FF000C30081608093C3008091C00082608093B1
:10100000C0008091C20081608093C20080917A000C
:10101000846080937A0080917A00826080937A0065
:1010200080917A00816080937A0080917A00806854
:1010300080937A001092E1011092C8011092C901C8
:101040008091D70081608093D70080EA8093D80098
:1010500089B5806189BD89B5826089BD09B400FE0A
:10106000FDCF0E94AB018091D8008F7C806180937E
:10107000D8008091E000807F8093E0008091E100C3
:101080008E7E8093E1008DE08093E200559A209A55
:101090008FEF9FEF90933701809336018CE00E9491
:1010A00014018DE00E9414018BE00E94140183E082
:1010B0000E94140182E00E94140185E00E94140144
:1010C00088E00E94140189E00E9414018AE00E94D5
:1010D000140187E00E94140184E00E94140186E05C
:1010E0000E94140160E070E08BE00E94230460E045
:1010F0008CE00E94BF0360E08DE00E94BF0360E0CF
:1011000070E085E00E94230460E083E00E94BF035A
:1011100060E082E00E94BF0360E070E08AE00E942D
:10112000230460E088E00E94BF0360E089E00E9441
:10113000BF0360E070E086E00E94230460E087E087
:101140000E94BF0360E084E00E94BF03C0E0D0E0E3
:1011500011E00FE18AE291E00E94A1032091C20117
:10116000181619061CF4222309F4E0C02223C1F149
:1011700062E871E082EA91E00E94300A65E271E083
:1011800082EA91E00E94F7090E94D60990937D01BE
:1011900080937C0165E271E080E090E00E94F709B5
:1011A0000E94D609909381018093800165E271E0ED
:1011B00080E090E00E94F7090E94D60990937F0199
:1011C00080937E0165E271E080E090E00E94F70983
:1011D0000E94D60990937B0180937A011092C201FC
:1011E0006091800170918101161617064CF48BE016
:1011F0000E94230460E08CE00E94BF0361E015C000
:101200006115710541F07195619571098BE00E943E
:10121000230461E006C061E070E08BE00E942304DB
:1012200060E08CE00E94BF0360E08DE00E94BF039D
:1012300060917E0170917F01161617062CF485E0EF
:101240000E94230461E015C06115710561F071957C
:101250006195710985E00E94230460E083E00E94AB
:10126000BF0361E00AC061E070E085E00E942304F2
:1012700060E083E00E94BF0360E082E00E94BF0361
:1012800060917C0170917D01161617062CF48AE09E
:101290000E94230461E015C06115710561F071952C
:1012A000619571098AE00E94230460E088E00E9451
:1012B000BF0361E00AC061E070E08AE00E9423049D
:1012C00060E088E00E94BF0360E089E00E94BF0305
:1012D00060917A0170917B01161617064CF486E036
:1012E0000E94230460E087E00E94BF0361E015C014
:1012F0006115710541F071956195710986E00E9453
:10130000230461E006C061E070E086E00E942304EF
:1013100060E087E00E94BF0360E084E00E94BF03BA
:10132000209709F417CF0E94000014CF8AE291E0C1
:101330000E945F03909129019923E9F0E09128012F
:101340008E3371F0AE2FB0E0AE57BE4F8C93EF5F8F
:10135000E03218F4E0932801FDCE00932801FACE84
:10136000F0E0EE57FE4F10821092290110922801F2
:101370001093C201EFCE8C3309F0ECCE109329010B
:10138000E9CEEAE2F1E01382128288EE93E0A0E077
:10139000B0E084839583A683B78380E191E0918355
:1013A00080838FEF9FEF958784870895FC018827BE
:1013B0009927E89421912032E9F3293010F02E305A
:1013C000C8F32B3241F02D3239F4689404C00E94E6
:1013D000230A820F911D219120532A30C0F31EF45D
:1013E000909581959F4F0895F8940C943D0A42EE94
:1013F00051E00E94FC090895FA01A191B081009783
:1014000019F41097E1F0CD01DC01CD010D90002021
:1014100011F4C00113C0FB012191222319F0201502
:10142000D9F7F3CFFB012191201519F41E921196E3
:1014300006C02223C1F70D900020A1F7D001FA01C8
:10144000A193B08308957AE0979F902D879F802D78
:10145000910D1124089581E090E0F8940C943D0AD8
:10146000FB01DC0101900D920020E1F70895EE0FE1
:0E147000FF1F0590F491E02D0994F894FFCF32
:10147E00FFFFFFFF00E10000000000000000000081
:10148E003A03B8025B035003A1035F037D0300C15F
:08149E0080810000002C000019
:00000001FF
